:100000000C942A000C9447000C9447000C94470071
:100010000C9447000C9447000C9447000C94470044
:100020000C9447000C9447000C9447000C94470034
:100030000C9447000C9447000C9447000C94470024
:100040000C9447000C9447000C9447000C94470014
:100050000C94470011241FBECFE5D8E0DEBFCDBF12
:1000600010E0A0E6B0E0E6E2F1E002C005900D92FB
:10007000A036B107D9F710E0A0E6B0E001C01D92AC
:10008000A036B107E1F70E9452000C9491000C9445
:1000900000008D9A8E9A8F9A0895181619060CF4FE
:1000A000FFCF08950E944900959A8FE79AE1A6E054
:1000B00081509040A040E1F700C00000969A8FE781
:1000C0009AE1A6E081509040A040E1F700C0000016
:1000D000979A8FE79AE1A6E081509040A040E1F71F
:1000E00000C0000097988FE79AE1A6E08150904009
:1000F000A040E1F700C0000096988FE79AE1A6E0E3
:1001000081509040A040E1F700C0000095988FE733
:100110009AE1A6E081509040A040E1F700C00000C5
:06012000C3CFF894FFCFED
:00000001FF
