:100000000C942A000C9447000C9447000C94470071
:100010000C9447000C9447000C9447000C94470044
:100020000C9447000C9447000C9447000C94470034
:100030000C9447000C9447000C9447000C94470024
:100040000C9447000C9447000C9447000C94470014
:100050000C94470011241FBECFE5D8E0DEBFCDBF12
:1000600010E0A0E6B0E0E4E0F3E002C005900D92FD
:10007000A437B107D9F710E0A4E7B0E001C01D92A2
:10008000A838B107E1F70E94F1000C9480010C94AC
:100090000000C39A8FEF90E7A2E081509040A0400B
:1000A000E1F700C00000C39808958AB38F708ABB3F
:1000B000C29AC1980E9449008AB3806F8ABBC298D5
:1000C0000895CF93C82F0E9455008BB39C2F907F2B
:1000D0008F70892B8BBB88B3897F88BB0E944900B6
:1000E0008BB3C295C07F8F70C82BCBBB88B3897F81
:1000F00088BB0E944900CF910895813029F4862F52
:1001000080580E9461000895823021F4862F805427
:100110000E946100089581E00E94610008958FEFC0
:1001200099EFA0E081509040A040E1F700C00000AE
:1001300087B38E6087BB88B3817F88BB8FEF8ABB14
:10014000AFE5BAEE1197F1F700C000000E948B00F6
:1001500082E00E94610088E20E94610086E00E94C5
:10016000610080E80E9461008FE00E9461000895B4
:10017000CF93C82F8BB39C2F907F8F70892B8BBB15
:10018000C19AC2980E9449008BB3C295C07F8F70FC
:10019000C82BCBBBC19AC2980E944900CF91089549
:1001A0001F93CF93DF93C82FD92F10E013C00E9465
:1001B000B8001F5F103129F482E060E00E947D00EA
:1001C00009C01F3139F40E948B0081E060E00E9479
:1001D0007D0010E08991882351F7DF91CF911F9125
:1001E00008950E948F000E94340180E690E00E94F2
:1001F000D00082E061E00E947D0089E690E00E94EC
:1002000050010E945F010E94D000FBCF613031F4A9
:10021000E82FF0E031978FEF80830895E82FF0E02A
:10022000319710820895413079F4E82FF0E022915F
:1002300081E090E0AC0102C0440F551F6A95E2F7DF
:10024000BA01622B60830895E82FF0E0229181E0EB
:1002500090E0AC0102C0440F551F6A95E2F7BA0165
:100260006095622360830895599880B5826080BD4F
:1002700080B5846080BD529880B58F7B80BD10BCF6
:1002800083E389B980B5877F80BD539A549A0895D6
:100290005D9BFECF8CB908955F9BFECF8CB1089516
:1002A000CF93DF93EC018881882331F021960E945F
:1002B000480189918823D9F7DF91CF9108950F9351
:1002C0001F93CF93DF930E944C01833261F0C4E708
:1002D000D0E000E010E089930E944C010F5F1F4FB7
:1002E0008332C9F702C000E010E084E790E0FC012F
:1002F000E00FF11F1082DF91CF911F910F910895B0
:04030000F894FFCF9F
:1003040055415254204C61620053656E64696E67B6
:040314002E2E2E005B
:00000001FF
