S0100000616D69745F6C61622E73726563DB
S11300000C942A000C9447000C9447000C9447006D
S11300100C9447000C9447000C9447000C94470040
S11300200C9447000C9447000C9447000C94470030
S11300300C9447000C9447000C9447000C94470020
S11300400C9447000C9447000C9447000C94470010
S11300500C94470011241FBECFE5D8E0DEBFCDBF0E
S113006010E0A0E6B0E0EEE6F4E002C005900D92E8
S1130070A238B107D9F710E0A2E8B0E001C01D92A0
S1130080A238B107E1F70E9449000C9435020C94A0
S113009000000E94D60180E690E00E9414028FEFD7
S11300A099E6A8E181509040A040E1F700C000002B
S11300B081E00E94A801FFCF613031F4E82FF0E025
S11300C031978FEF80830895E82FF0E03197108205
S11300D00895413079F4E82FF0E0229181E090E036
S11300E0AC0102C0440F551F6A95E2F7BA01622BB6
S11300F060830895E82FF0E0229181E090E0AC0164
S113010002C0440F551F6A95E2F7BA016095622355
S11301106083089581B3807F81BB81B3806F81BB8D
S11301208FEF82BB08956F927F928F929F92AF92CE
S1130130BF92CF92DF92EF92FF920F931F93CF93D0
S1130140DF9301E710E0C0E0D0E0D80161E070E0A7
S1130150EE24FF246894E1F8E00EF11ECC24DD24A3
S11301606894C2F8C00ED11E0F2EF6E0AF2EBB2449
S1130170F02DA00EB11E0F2EF9E78F2EF0E09F2E6A
S1130180F02D6624772492B39B010C9002C0220FB9
S1130190331F0A94E2F7AB01F701008002C0440F59
S11301A0551F0A94E2F7242B292BCB01F60100807A
S11301B002C0880F991F0A94E2F7822B9B01F50174
S11301C0008002C0220F331F0A94E2F7822B82BB05
S11301D022B3F80180810E5F1F4FAB0102C0440FB0
S11301E0551F8A95E2F7CA018095282322BBF401A2
S11301F0A30180B32081329690E0022E02C095952F
S113020087950A94E2F780FD50C0CB0102C0880FA5
S1130210991F2A95E2F79C0180B390E082239323EF
S11302200097D1F3C130D105D1F0C230D1051CF40F
S1130230209741F03AC0C230D105F1F0C330D10566
S1130240A1F527C041155105E9F141305105E1F10E
S113025042305105D9F14330510539F539C04115C2
S11302605105C1F141305105B9F142305105B1F1A7
S113027043305105D1F434C04115510599F1413051
S1130280510591F14230510589F14330510569F42A
S11302902FC04115510571F14130510569F14230CA
S11302A0510561F14330510559F14F5F5F4F4430BF
S11302B0510509F09ECF2196C430D10509F063CFD2
S11302C081E41FC087E31DC084E31BC081E319C020
S11302D08FE317C088E315C085E313C082E311C020
S11302E080E30FC089E30DC086E30BC083E309C03C
S11302F08DE307C08FE205C08AE203C08DE201C02E
S11303008BE2DF91CF911F910F91FF90EF90DF90DF
S1130310CF90BF90AF909F908F907F906F900895F3
S1130320C39A8FE798E3A1E081509040A040E1F7A1
S113033000C00000C39808958AB38F708ABBC29A24
S1130340C1980E9490018AB3806F8ABBC2980895B5
S1130350CF93C82F0E949C018BB39C2F907F8F70EA
S1130360892B8BBB88B3897F88BB0E9490018BB398
S1130370C295C07F8F70C82BCBBB88B3897F88BBE5
S11303800E949001CF910895813029F4862F8058DE
S11303900E94A8010895823021F4862F80540E947F
S11303A0A801089581E00E94A80108958FE39CE9C3
S11303B00197F1F700C0000087B38E6087BB88B354
S11303C0817F88BB8FEF8ABB8FE295E70197F1F7B6
S11303D000C000000E94D20182E00E94A80188E2CD
S11303E00E94A80186E00E94A80180E80E94A8015A
S11303F08FE00E94A8010895CF93C82F8BB39C2F40
S1130400907F8F70892B8BBBC19AC2980E949001F8
S11304108BB3C295C07F8F70C82BCBBBC19AC298D7
S11304200E949001CF9108951F93CF93DF93C82F1B
S1130430D92F10E013C00E94FC011F5F103129F472
S113044082E060E00E94C40109C01F3139F40E94B7
S1130450D20181E060E00E94C40110E08991882308
S111046051F7DF91CF911F910895F894FFCFCB
S113046E456E672E2048617373616E2053616D79FA
S113047E000400050006000700000001000200034E
S105048E000068
S9030000FC
