:100000000C942A000C9447000C9447000C94470071
:100010000C9447000C9447000C9447000C94470044
:100020000C9447000C9447000C9447000C94470034
:100030000C9447000C9447000C9447000C94470024
:100040000C9447000C9447000C9447000C94470014
:100050000C94470011241FBECFE5D8E0DEBFCDBF12
:1000600010E0A0E6B0E0E6EDF0E002C005900D92F1
:10007000A036B107D9F710E0A0E6B0E001C01D92AC
:10008000A036B107E1F70E9455000C9469000C946A
:10009000000087B3806B87BB8DB181658DB90895F2
:1000A0008FB9779BFECF8FB108950E9449008FEFE3
:1000B0008ABBC0E08FE996E8A1E081509040A04063
:1000C000E1F700C000008C2F0E9450008BBBCF5F77
:0600D000F1CFF894FFCF10
:00000001FF
