:100000000C942A000C9447000C9447000C94470071
:100010000C9447000C9447000C9447000C94470044
:100020000C9447000C9447000C9447000C94470034
:100030000C9447000C9447000C9447000C94470024
:100040000C9447000C9447000C9447000C94470014
:100050000C94470011241FBECFE5D8E0DEBFCDBF12
:1000600010E0A0E6B0E0E0EFF0E002C005900D92F5
:10007000A036B107D9F710E0A0E6B0E001C01D92AC
:10008000A036B107E1F70E944F000C9476000C9463
:100090000000889890988D9A8E9A8F9A08950E9461
:1000A000490080E090E050E240E420E030E0809BB6
:1000B000FECF01968230910541F08330910539F0F1
:1000C0008130910531F4959A0EC0969A0CC0979A9A
:1000D0000AC082B3852782BB82B3842782BB82B3E6
:1000E000805882BBC9018099FECFE1CFF894FFCF41
:00000001FF
