:100000000C942A000C9447000C9447000C94470071
:100010000C9447000C9447000C9447000C94470044
:100020000C9447000C9447000C9447000C94470034
:100030000C9447000C9447000C9447000C94470024
:100040000C9447000C9447000C9447000C94470014
:100050000C94470011241FBECFE5D8E0DEBFCDBF12
:1000600010E0A0E6B0E0E4EAF2E002C005900D92F4
:10007000A036B107D9F710E0A0E6B0E001C01D92AC
:10008000A236B107E1F70E94F1000C9450010C94E4
:100090000000FC01909361008093600093B7808121
:1000A000892B83BF93B78181892B83BF93B78281CB
:1000B000892B83BF0895109261001092600019BED1
:1000C00008952CB7FC01208308958CBF08950F93E9
:1000D0001F93CF93DF930F92CDB7DEB78C011982B8
:1000E000CE0101960E946100298130E044E650E093
:1000F000249FC001259F900D349F900D11246FEF18
:1001000070E00E940701F80160830F90DF91CF91AA
:100110001F910F910895282F30E0922F8827821B7E
:10012000930B64E670E00E940701862F0E94650031
:1001300008950F931F93CF93DF93EC018B01898177
:10014000833099F0843028F4882351F0823029F4E8
:1001500015C0843069F0853071F041E050E010C086
:100160000E945B0040E050E00BC040E150E008C05E
:1001700040E051E005C040E054E002C048E050E0FB
:100180008881883489F4542F44279A0140E050E054
:1001900060E072E18AE790E00E941A01F801208392
:1001A00031834283538316C08EEF91E0489F9001C4
:1001B000499F300D589F300D112440E050E060E021
:1001C00072E18AE790E00E941A01F80120833183EE
:1001D00042835383DF91CF911F910F910895BB9A72
:1001E0000895CF93DF9300D00F92CDB7DEB70E9472
:1001F000EF0080E4898384E08A8380E28B83CE01F0
:1002000001960E94490089E10E948B00FFCF97FB75
:10021000092E07260AD077FD04D02ED006D0002064
:100220001AF4709561957F4F0895F6F79095819532
:100230009F4F0895A1E21A2EAA1BBB1BFD010DC002
:10024000AA1FBB1FEE1FFF1FA217B307E407F50786
:1002500020F0A21BB30BE40BF50B661F771F881F62
:10026000991F1A9469F760957095809590959B01F8
:10027000AC01BD01CF010895AA1BBB1B51E107C012
:10028000AA1FBB1FA617B70710F0A61BB70B881F26
:10029000991F5A95A9F780959095BC01CD010895B5
:0402A000F894FFCF00
:00000001FF
