S01400005350495F375365676D656E742E73726563BB
S11300000C942A000C9447000C9447000C9447006D
S11300100C9447000C9447000C9447000C94470040
S11300200C9447000C9447000C9447000C94470030
S11300300C9447000C9447000C9447000C94470020
S11300400C9447000C9447000C9447000C94470010
S11300500C94470011241FBECFE5D8E0DEBFCDBF0E
S113006010E0A0E6B0E0ECE0F1E002C005900D92F3
S1130070A036B107D9F710E0A0E6B0E001C01D92A8
S1130080A036B107E1F70E946A000C9484000C9436
S1130090000087B3806B87BB8DB181658DB90895EE
S11300A0C4988FB9779BFECF6FB9779BFECFC49A64
S11300B0089589E06FEF0E9450008AE06FE00E948B
S11300C050008BE067E00E9450008CE061E00E94E9
S11300D0500008950E9449000E945900D0E0C1E0F8
S11300E011E08C2F6D2F0E9450008FE996E8A1E05B
S11300F081509040A040E1F700C00000CF5FDF5F77
S10F0100C93078F3C12FEDCFF894FFCF85
S9030000FC
