S01100005350495F536C6176652E73726563CD
S11300000C942A000C9447000C9447000C9447006D
S11300100C9447000C9447000C9447000C94470040
S11300200C9447000C9447000C9447000C94470030
S11300300C9447000C9447000C9447000C94470020
S11300400C9447000C9447000C9447000C94470010
S11300500C94470011241FBECFE5D8E0DEBFCDBF0E
S113006010E0A0E6B0E0EAECF0E002C005900D92EA
S1130070A036B107D9F710E0A0E6B0E001C01D92A8
S1130080A036B107E1F70E9455000C9463000C946C
S11300900000BE9A87B38F7487BB80E48DB908953E
S11300A08FB9779BFECF8FB108950E9449008FEFDF
S11300B08ABBCFEFDFEF8C2F0E9450008BBBC15067
S10D00C0D1F7CD2FF8CFF894FFCF4D
S9030000FC
